{
  "contractName": "DecentralBank",
  "abi": [
    {
      "inputs": [
        {
          "internalType": "contract IZIN",
          "name": "_izin",
          "type": "address"
        },
        {
          "internalType": "contract Tether",
          "name": "_tether",
          "type": "address"
        }
      ],
      "stateMutability": "nonpayable",
      "type": "constructor"
    },
    {
      "inputs": [
        {
          "internalType": "address",
          "name": "",
          "type": "address"
        }
      ],
      "name": "hasStaked",
      "outputs": [
        {
          "internalType": "bool",
          "name": "",
          "type": "bool"
        }
      ],
      "stateMutability": "view",
      "type": "function",
      "constant": true
    },
    {
      "inputs": [
        {
          "internalType": "address",
          "name": "",
          "type": "address"
        }
      ],
      "name": "isStaking",
      "outputs": [
        {
          "internalType": "bool",
          "name": "",
          "type": "bool"
        }
      ],
      "stateMutability": "view",
      "type": "function",
      "constant": true
    },
    {
      "inputs": [],
      "name": "izin",
      "outputs": [
        {
          "internalType": "contract IZIN",
          "name": "",
          "type": "address"
        }
      ],
      "stateMutability": "view",
      "type": "function",
      "constant": true
    },
    {
      "inputs": [],
      "name": "name",
      "outputs": [
        {
          "internalType": "string",
          "name": "",
          "type": "string"
        }
      ],
      "stateMutability": "view",
      "type": "function",
      "constant": true
    },
    {
      "inputs": [],
      "name": "owner",
      "outputs": [
        {
          "internalType": "address",
          "name": "",
          "type": "address"
        }
      ],
      "stateMutability": "view",
      "type": "function",
      "constant": true
    },
    {
      "inputs": [
        {
          "internalType": "uint256",
          "name": "",
          "type": "uint256"
        }
      ],
      "name": "stakers",
      "outputs": [
        {
          "internalType": "address",
          "name": "",
          "type": "address"
        }
      ],
      "stateMutability": "view",
      "type": "function",
      "constant": true
    },
    {
      "inputs": [
        {
          "internalType": "address",
          "name": "",
          "type": "address"
        }
      ],
      "name": "stakingBalance",
      "outputs": [
        {
          "internalType": "uint256",
          "name": "",
          "type": "uint256"
        }
      ],
      "stateMutability": "view",
      "type": "function",
      "constant": true
    },
    {
      "inputs": [],
      "name": "tether",
      "outputs": [
        {
          "internalType": "contract Tether",
          "name": "",
          "type": "address"
        }
      ],
      "stateMutability": "view",
      "type": "function",
      "constant": true
    },
    {
      "inputs": [
        {
          "internalType": "uint256",
          "name": "_amount",
          "type": "uint256"
        }
      ],
      "name": "depositTokens",
      "outputs": [],
      "stateMutability": "nonpayable",
      "type": "function"
    },
    {
      "inputs": [],
      "name": "unstakeTokens",
      "outputs": [],
      "stateMutability": "nonpayable",
      "type": "function"
    },
    {
      "inputs": [],
      "name": "issueTokens",
      "outputs": [],
      "stateMutability": "nonpayable",
      "type": "function"
    },
    {
      "inputs": [
        {
          "internalType": "address",
          "name": "_user",
          "type": "address"
        },
        {
          "internalType": "uint256",
          "name": "_amount",
          "type": "uint256"
        }
      ],
      "name": "airdropTokens",
      "outputs": [],
      "stateMutability": "nonpayable",
      "type": "function"
    }
  ],
  "bytecode": "0x60806040526040518060400160405280600e81526020017f497a696e65792046696e616e6365000000000000000000000000000000000000815250600090816200004a9190620003c3565b503480156200005857600080fd5b5060405162001b1438038062001b1483398181016040528101906200007e91906200056d565b81600360006101000a81548173ffffffffffffffffffffffffffffffffffffffff021916908373ffffffffffffffffffffffffffffffffffffffff16021790555080600260006101000a81548173ffffffffffffffffffffffffffffffffffffffff021916908373ffffffffffffffffffffffffffffffffffffffff16021790555033600160006101000a81548173ffffffffffffffffffffffffffffffffffffffff021916908373ffffffffffffffffffffffffffffffffffffffff1602179055505050620005b4565b600081519050919050565b7f4e487b7100000000000000000000000000000000000000000000000000000000600052604160045260246000fd5b7f4e487b7100000000000000000000000000000000000000000000000000000000600052602260045260246000fd5b60006002820490506001821680620001cb57607f821691505b602082108103620001e157620001e062000183565b5b50919050565b60008190508160005260206000209050919050565b60006020601f8301049050919050565b600082821b905092915050565b6000600883026200024b7fffffffffffffffffffffffffffffffffffffffffffffffffffffffffffffffff826200020c565b6200025786836200020c565b95508019841693508086168417925050509392505050565b6000819050919050565b6000819050919050565b6000620002a46200029e62000298846200026f565b62000279565b6200026f565b9050919050565b6000819050919050565b620002c08362000283565b620002d8620002cf82620002ab565b84845462000219565b825550505050565b600090565b620002ef620002e0565b620002fc818484620002b5565b505050565b5b81811015620003245762000318600082620002e5565b60018101905062000302565b5050565b601f82111562000373576200033d81620001e7565b6200034884620001fc565b8101602085101562000358578190505b620003706200036785620001fc565b83018262000301565b50505b505050565b600082821c905092915050565b6000620003986000198460080262000378565b1980831691505092915050565b6000620003b3838362000385565b9150826002028217905092915050565b620003ce8262000149565b67ffffffffffffffff811115620003ea57620003e962000154565b5b620003f68254620001b2565b6200040382828562000328565b600060209050601f8311600181146200043b576000841562000426578287015190505b620004328582620003a5565b865550620004a2565b601f1984166200044b86620001e7565b60005b8281101562000475578489015182556001820191506020850194506020810190506200044e565b8683101562000495578489015162000491601f89168262000385565b8355505b6001600288020188555050505b505050505050565b600080fd5b600073ffffffffffffffffffffffffffffffffffffffff82169050919050565b6000620004dc82620004af565b9050919050565b6000620004f082620004cf565b9050919050565b6200050281620004e3565b81146200050e57600080fd5b50565b6000815190506200052281620004f7565b92915050565b60006200053582620004cf565b9050919050565b620005478162000528565b81146200055357600080fd5b50565b60008151905062000567816200053c565b92915050565b60008060408385031215620005875762000586620004aa565b5b6000620005978582860162000511565b9250506020620005aa8582860162000556565b9150509250929050565b61155080620005c46000396000f3fe608060405234801561001057600080fd5b50600436106100b45760003560e01c80638da5cb5b116100715780638da5cb5b1461017d578063a5ce413b1461019b578063c93c8f34146101a5578063dd49756e146101d5578063f659a45f146101f1578063fd5e6dd11461020d576100b4565b806306fdde03146100b957806345bc78ab146100d75780635efc071a1461010757806360ab5852146101255780636f49712b1461012f5780638aa7bd711461015f575b600080fd5b6100c161023d565b6040516100ce9190610dd2565b60405180910390f35b6100f160048036038101906100ec9190610e57565b6102cb565b6040516100fe9190610e9d565b60405180910390f35b61010f6102e3565b60405161011c9190610f17565b60405180910390f35b61012d610309565b005b61014960048036038101906101449190610e57565b6104ff565b6040516101569190610f4d565b60405180910390f35b61016761051f565b6040516101749190610f89565b60405180910390f35b610185610545565b6040516101929190610fb3565b60405180910390f35b6101a361056b565b005b6101bf60048036038101906101ba9190610e57565b610733565b6040516101cc9190610f4d565b60405180910390f35b6101ef60048036038101906101ea9190610ffa565b610753565b005b61020b60048036038101906102069190611027565b610a2f565b005b61022760048036038101906102229190610ffa565b610cfa565b6040516102349190610fb3565b60405180910390f35b6000805461024a90611096565b80601f016020809104026020016040519081016040528092919081815260200182805461027690611096565b80156102c35780601f10610298576101008083540402835291602001916102c3565b820191906000526020600020905b8154815290600101906020018083116102a657829003601f168201915b505050505081565b60056020528060005260406000206000915090505481565b600260009054906101000a900473ffffffffffffffffffffffffffffffffffffffff1681565b600160009054906101000a900473ffffffffffffffffffffffffffffffffffffffff1673ffffffffffffffffffffffffffffffffffffffff163373ffffffffffffffffffffffffffffffffffffffff1614610399576040517f08c379a000000000000000000000000000000000000000000000000000000000815260040161039090611139565b60405180910390fd5b60005b6004805490508110156104fc576000600482815481106103bf576103be611159565b5b9060005260206000200160009054906101000a900473ffffffffffffffffffffffffffffffffffffffff1690506000600a600560008473ffffffffffffffffffffffffffffffffffffffff1673ffffffffffffffffffffffffffffffffffffffff1681526020019081526020016000205461043a91906111e6565b905060008111156104e757600360009054906101000a900473ffffffffffffffffffffffffffffffffffffffff1673ffffffffffffffffffffffffffffffffffffffff1663a9059cbb83836040518363ffffffff1660e01b81526004016104a2929190611217565b6020604051808303816000875af11580156104c1573d6000803e3d6000fd5b505050506040513d601f19601f820116820180604052508101906104e5919061126c565b505b505080806104f490611299565b91505061039c565b50565b60076020528060005260406000206000915054906101000a900460ff1681565b600360009054906101000a900473ffffffffffffffffffffffffffffffffffffffff1681565b600160009054906101000a900473ffffffffffffffffffffffffffffffffffffffff1681565b6000600560003373ffffffffffffffffffffffffffffffffffffffff1673ffffffffffffffffffffffffffffffffffffffff168152602001908152602001600020549050600081116105f2576040517f08c379a00000000000000000000000000000000000000000000000000000000081526004016105e99061132d565b60405180910390fd5b600260009054906101000a900473ffffffffffffffffffffffffffffffffffffffff1673ffffffffffffffffffffffffffffffffffffffff1663a9059cbb33836040518363ffffffff1660e01b815260040161064f929190611217565b6020604051808303816000875af115801561066e573d6000803e3d6000fd5b505050506040513d601f19601f82011682018060405250810190610692919061126c565b506000600560003373ffffffffffffffffffffffffffffffffffffffff1673ffffffffffffffffffffffffffffffffffffffff168152602001908152602001600020819055506000600760003373ffffffffffffffffffffffffffffffffffffffff1673ffffffffffffffffffffffffffffffffffffffff16815260200190815260200160002060006101000a81548160ff02191690831515021790555050565b60066020528060005260406000206000915054906101000a900460ff1681565b60008111610796576040517f08c379a000000000000000000000000000000000000000000000000000000000815260040161078d90611399565b60405180910390fd5b600260009054906101000a900473ffffffffffffffffffffffffffffffffffffffff1673ffffffffffffffffffffffffffffffffffffffff166323b872dd3330846040518463ffffffff1660e01b81526004016107f5939291906113b9565b6020604051808303816000875af1158015610814573d6000803e3d6000fd5b505050506040513d601f19601f82011682018060405250810190610838919061126c565b5080600560003373ffffffffffffffffffffffffffffffffffffffff1673ffffffffffffffffffffffffffffffffffffffff1681526020019081526020016000205461088491906113f0565b600560003373ffffffffffffffffffffffffffffffffffffffff1673ffffffffffffffffffffffffffffffffffffffff16815260200190815260200160002081905550600660003373ffffffffffffffffffffffffffffffffffffffff1673ffffffffffffffffffffffffffffffffffffffff16815260200190815260200160002060009054906101000a900460ff1661097c576004339080600181540180825580915050600190039060005260206000200160009091909190916101000a81548173ffffffffffffffffffffffffffffffffffffffff021916908373ffffffffffffffffffffffffffffffffffffffff1602179055505b6001600760003373ffffffffffffffffffffffffffffffffffffffff1673ffffffffffffffffffffffffffffffffffffffff16815260200190815260200160002060006101000a81548160ff0219169083151502179055506001600660003373ffffffffffffffffffffffffffffffffffffffff1673ffffffffffffffffffffffffffffffffffffffff16815260200190815260200160002060006101000a81548160ff02191690831515021790555050565b80600260009054906101000a900473ffffffffffffffffffffffffffffffffffffffff1673ffffffffffffffffffffffffffffffffffffffff166370a08231306040518263ffffffff1660e01b8152600401610a8b9190610fb3565b602060405180830381865afa158015610aa8573d6000803e3d6000fd5b505050506040513d601f19601f82011682018060405250810190610acc919061145b565b10158015610b75575080600360009054906101000a900473ffffffffffffffffffffffffffffffffffffffff1673ffffffffffffffffffffffffffffffffffffffff166370a08231306040518263ffffffff1660e01b8152600401610b319190610fb3565b602060405180830381865afa158015610b4e573d6000803e3d6000fd5b505050506040513d601f19601f82011682018060405250810190610b72919061145b565b10155b610bb4576040517f08c379a0000000000000000000000000000000000000000000000000000000008152600401610bab906114fa565b60405180910390fd5b600260009054906101000a900473ffffffffffffffffffffffffffffffffffffffff1673ffffffffffffffffffffffffffffffffffffffff1663a9059cbb83836040518363ffffffff1660e01b8152600401610c11929190611217565b6020604051808303816000875af1158015610c30573d6000803e3d6000fd5b505050506040513d601f19601f82011682018060405250810190610c54919061126c565b50600360009054906101000a900473ffffffffffffffffffffffffffffffffffffffff1673ffffffffffffffffffffffffffffffffffffffff1663a9059cbb83836040518363ffffffff1660e01b8152600401610cb2929190611217565b6020604051808303816000875af1158015610cd1573d6000803e3d6000fd5b505050506040513d601f19601f82011682018060405250810190610cf5919061126c565b505050565b60048181548110610d0a57600080fd5b906000526020600020016000915054906101000a900473ffffffffffffffffffffffffffffffffffffffff1681565b600081519050919050565b600082825260208201905092915050565b60005b83811015610d73578082015181840152602081019050610d58565b83811115610d82576000848401525b50505050565b6000601f19601f8301169050919050565b6000610da482610d39565b610dae8185610d44565b9350610dbe818560208601610d55565b610dc781610d88565b840191505092915050565b60006020820190508181036000830152610dec8184610d99565b905092915050565b600080fd5b600073ffffffffffffffffffffffffffffffffffffffff82169050919050565b6000610e2482610df9565b9050919050565b610e3481610e19565b8114610e3f57600080fd5b50565b600081359050610e5181610e2b565b92915050565b600060208284031215610e6d57610e6c610df4565b5b6000610e7b84828501610e42565b91505092915050565b6000819050919050565b610e9781610e84565b82525050565b6000602082019050610eb26000830184610e8e565b92915050565b6000819050919050565b6000610edd610ed8610ed384610df9565b610eb8565b610df9565b9050919050565b6000610eef82610ec2565b9050919050565b6000610f0182610ee4565b9050919050565b610f1181610ef6565b82525050565b6000602082019050610f2c6000830184610f08565b92915050565b60008115159050919050565b610f4781610f32565b82525050565b6000602082019050610f626000830184610f3e565b92915050565b6000610f7382610ee4565b9050919050565b610f8381610f68565b82525050565b6000602082019050610f9e6000830184610f7a565b92915050565b610fad81610e19565b82525050565b6000602082019050610fc86000830184610fa4565b92915050565b610fd781610e84565b8114610fe257600080fd5b50565b600081359050610ff481610fce565b92915050565b6000602082840312156110105761100f610df4565b5b600061101e84828501610fe5565b91505092915050565b6000806040838503121561103e5761103d610df4565b5b600061104c85828601610e42565b925050602061105d85828601610fe5565b9150509250929050565b7f4e487b7100000000000000000000000000000000000000000000000000000000600052602260045260246000fd5b600060028204905060018216806110ae57607f821691505b6020821081036110c1576110c0611067565b5b50919050565b7f4f6e6c7920746865206f776e65722063616e206d616b6520746861742063616c60008201527f6c00000000000000000000000000000000000000000000000000000000000000602082015250565b6000611123602183610d44565b915061112e826110c7565b604082019050919050565b6000602082019050818103600083015261115281611116565b9050919050565b7f4e487b7100000000000000000000000000000000000000000000000000000000600052603260045260246000fd5b7f4e487b7100000000000000000000000000000000000000000000000000000000600052601260045260246000fd5b7f4e487b7100000000000000000000000000000000000000000000000000000000600052601160045260246000fd5b60006111f182610e84565b91506111fc83610e84565b92508261120c5761120b611188565b5b828204905092915050565b600060408201905061122c6000830185610fa4565b6112396020830184610e8e565b9392505050565b61124981610f32565b811461125457600080fd5b50565b60008151905061126681611240565b92915050565b60006020828403121561128257611281610df4565b5b600061129084828501611257565b91505092915050565b60006112a482610e84565b91507fffffffffffffffffffffffffffffffffffffffffffffffffffffffffffffffff82036112d6576112d56111b7565b5b600182019050919050565b7f5374616b696e672062616c616e6365206d7573742062652061626f7665203000600082015250565b6000611317601f83610d44565b9150611322826112e1565b602082019050919050565b600060208201905081810360008301526113468161130a565b9050919050565b7f616d6f756e742063616e6e6f7420626520300000000000000000000000000000600082015250565b6000611383601283610d44565b915061138e8261134d565b602082019050919050565b600060208201905081810360008301526113b281611376565b9050919050565b60006060820190506113ce6000830186610fa4565b6113db6020830185610fa4565b6113e86040830184610e8e565b949350505050565b60006113fb82610e84565b915061140683610e84565b9250827fffffffffffffffffffffffffffffffffffffffffffffffffffffffffffffffff0382111561143b5761143a6111b7565b5b828201905092915050565b60008151905061145581610fce565b92915050565b60006020828403121561147157611470610df4565b5b600061147f84828501611446565b91505092915050565b7f5468657265206973206e6f7420656e6f7567687420746f6b656e7320746f206160008201527f697264726f700000000000000000000000000000000000000000000000000000602082015250565b60006114e4602683610d44565b91506114ef82611488565b604082019050919050565b60006020820190508181036000830152611513816114d7565b905091905056fea264697066735822122000a67fa251bdebdd0999f47ebd2093bb95e9aa33eecf4e2f8be24095d9efd24864736f6c634300080f0033",
  "immutableReferences": {},
  "source": "// SPDX-License-Identifier: GPLv3\n// Developed by: @joevidev\n// v1.0.0\n\npragma solidity ^0.8.10;\n\nimport './IZIN.sol';\nimport './Tether.sol';\n\ncontract DecentralBank {\n\n    string public name = 'Iziney Finance';\n    address public owner;\n    Tether public tether;\n    IZIN public izin;\n\n    address[] public stakers;\n\n    mapping(address => uint) public stakingBalance;\n    mapping(address => bool) public hasStaked;\n    mapping(address => bool) public isStaking;\n\n    constructor(IZIN _izin, Tether _tether) {\n        izin = _izin;\n        tether = _tether;\n        owner = msg.sender;\n    }\n\n    // STAKING FUNCTION\n    function depositTokens(uint _amount) public {\n        require(_amount > 0, 'amount cannot be 0');\n        tether.transferFrom(msg.sender, address(this), _amount);\n        stakingBalance[msg.sender] = stakingBalance[msg.sender] + _amount;\n        if(!hasStaked[msg.sender]) {\n            stakers.push(msg.sender);\n        }\n        isStaking[msg.sender] = true;\n        hasStaked[msg.sender] = true;\n    }\n\n    // UnStaking Function\n    function unstakeTokens() public {\n        uint balance = stakingBalance[msg.sender];\n        require(balance > 0, 'Staking balance must be above 0');\n        tether.transfer(msg.sender, balance);\n        stakingBalance[msg.sender] = 0;\n        isStaking[msg.sender] = false;\n    }\n\n    // reward function\n    function issueTokens() public {\n        require(msg.sender == owner, 'Only the owner can make that call');\n        for (uint i=0; i<stakers.length; i++) {\n              address recipient = stakers[i];\n              uint balance = stakingBalance[recipient] / 10;\n              if(balance > 0) {\n              izin.transfer(recipient, balance);\n          }\n        }\n    }\n    \n    function airdropTokens(address _user, uint256 _amount) public {\n        require(tether.balanceOf(address(this)) >= _amount && izin.balanceOf(address(this)) >= _amount, 'There is not enought tokens to airdrop');\n        tether.transfer(_user ,  _amount);\n        izin.transfer(_user ,  _amount);\n    }\n\n}",
  "sourcePath": "/home/timana/unix-projects/EVM/portfolio/stakingDapp/izineyDapp-frontend/src/contracts/DecentralBank.sol",
  "compiler": {
    "name": "solc",
    "version": "0.8.15+commit.e14f2714.Emscripten.clang"
  },
  "schemaVersion": "3.4.8",
  "updatedAt": "2022-08-12T13:22:00.838Z",
  "networkType": "ethereum",
  "devdoc": {
    "kind": "dev",
    "methods": {},
    "version": 1
  },
  "userdoc": {
    "kind": "user",
    "methods": {},
    "version": 1
  }
}